{
  "contractName": "ImageNFT",
  "abi": [
    {
      "inputs": [],
      "stateMutability": "nonpayable",
      "type": "constructor"
    },
    {
      "inputs": [
        {
          "internalType": "address",
          "name": "sender",
          "type": "address"
        },
        {
          "internalType": "uint256",
          "name": "tokenId",
          "type": "uint256"
        },
        {
          "internalType": "address",
          "name": "owner",
          "type": "address"
        }
      ],
      "name": "ERC721IncorrectOwner",
      "type": "error"
    },
    {
      "inputs": [
        {
          "internalType": "address",
          "name": "operator",
          "type": "address"
        },
        {
          "internalType": "uint256",
          "name": "tokenId",
          "type": "uint256"
        }
      ],
      "name": "ERC721InsufficientApproval",
      "type": "error"
    },
    {
      "inputs": [
        {
          "internalType": "address",
          "name": "approver",
          "type": "address"
        }
      ],
      "name": "ERC721InvalidApprover",
      "type": "error"
    },
    {
      "inputs": [
        {
          "internalType": "address",
          "name": "operator",
          "type": "address"
        }
      ],
      "name": "ERC721InvalidOperator",
      "type": "error"
    },
    {
      "inputs": [
        {
          "internalType": "address",
          "name": "owner",
          "type": "address"
        }
      ],
      "name": "ERC721InvalidOwner",
      "type": "error"
    },
    {
      "inputs": [
        {
          "internalType": "address",
          "name": "receiver",
          "type": "address"
        }
      ],
      "name": "ERC721InvalidReceiver",
      "type": "error"
    },
    {
      "inputs": [
        {
          "internalType": "address",
          "name": "sender",
          "type": "address"
        }
      ],
      "name": "ERC721InvalidSender",
      "type": "error"
    },
    {
      "inputs": [
        {
          "internalType": "uint256",
          "name": "tokenId",
          "type": "uint256"
        }
      ],
      "name": "ERC721NonexistentToken",
      "type": "error"
    },
    {
      "anonymous": false,
      "inputs": [
        {
          "indexed": true,
          "internalType": "address",
          "name": "owner",
          "type": "address"
        },
        {
          "indexed": true,
          "internalType": "address",
          "name": "approved",
          "type": "address"
        },
        {
          "indexed": true,
          "internalType": "uint256",
          "name": "tokenId",
          "type": "uint256"
        }
      ],
      "name": "Approval",
      "type": "event"
    },
    {
      "anonymous": false,
      "inputs": [
        {
          "indexed": true,
          "internalType": "address",
          "name": "owner",
          "type": "address"
        },
        {
          "indexed": true,
          "internalType": "address",
          "name": "operator",
          "type": "address"
        },
        {
          "indexed": false,
          "internalType": "bool",
          "name": "approved",
          "type": "bool"
        }
      ],
      "name": "ApprovalForAll",
      "type": "event"
    },
    {
      "anonymous": false,
      "inputs": [
        {
          "indexed": false,
          "internalType": "uint256",
          "name": "_fromTokenId",
          "type": "uint256"
        },
        {
          "indexed": false,
          "internalType": "uint256",
          "name": "_toTokenId",
          "type": "uint256"
        }
      ],
      "name": "BatchMetadataUpdate",
      "type": "event"
    },
    {
      "anonymous": false,
      "inputs": [
        {
          "indexed": false,
          "internalType": "uint256",
          "name": "_tokenId",
          "type": "uint256"
        }
      ],
      "name": "MetadataUpdate",
      "type": "event"
    },
    {
      "anonymous": false,
      "inputs": [
        {
          "indexed": true,
          "internalType": "address",
          "name": "from",
          "type": "address"
        },
        {
          "indexed": true,
          "internalType": "address",
          "name": "to",
          "type": "address"
        },
        {
          "indexed": true,
          "internalType": "uint256",
          "name": "tokenId",
          "type": "uint256"
        }
      ],
      "name": "Transfer",
      "type": "event"
    },
    {
      "inputs": [
        {
          "internalType": "address",
          "name": "to",
          "type": "address"
        },
        {
          "internalType": "uint256",
          "name": "tokenId",
          "type": "uint256"
        }
      ],
      "name": "approve",
      "outputs": [],
      "stateMutability": "nonpayable",
      "type": "function"
    },
    {
      "inputs": [
        {
          "internalType": "address",
          "name": "owner",
          "type": "address"
        }
      ],
      "name": "balanceOf",
      "outputs": [
        {
          "internalType": "uint256",
          "name": "",
          "type": "uint256"
        }
      ],
      "stateMutability": "view",
      "type": "function",
      "constant": true
    },
    {
      "inputs": [
        {
          "internalType": "uint256",
          "name": "tokenId",
          "type": "uint256"
        }
      ],
      "name": "getApproved",
      "outputs": [
        {
          "internalType": "address",
          "name": "",
          "type": "address"
        }
      ],
      "stateMutability": "view",
      "type": "function",
      "constant": true
    },
    {
      "inputs": [
        {
          "internalType": "address",
          "name": "owner",
          "type": "address"
        },
        {
          "internalType": "address",
          "name": "operator",
          "type": "address"
        }
      ],
      "name": "isApprovedForAll",
      "outputs": [
        {
          "internalType": "bool",
          "name": "",
          "type": "bool"
        }
      ],
      "stateMutability": "view",
      "type": "function",
      "constant": true
    },
    {
      "inputs": [],
      "name": "name",
      "outputs": [
        {
          "internalType": "string",
          "name": "",
          "type": "string"
        }
      ],
      "stateMutability": "view",
      "type": "function",
      "constant": true
    },
    {
      "inputs": [
        {
          "internalType": "uint256",
          "name": "tokenId",
          "type": "uint256"
        }
      ],
      "name": "ownerOf",
      "outputs": [
        {
          "internalType": "address",
          "name": "",
          "type": "address"
        }
      ],
      "stateMutability": "view",
      "type": "function",
      "constant": true
    },
    {
      "inputs": [
        {
          "internalType": "address",
          "name": "from",
          "type": "address"
        },
        {
          "internalType": "address",
          "name": "to",
          "type": "address"
        },
        {
          "internalType": "uint256",
          "name": "tokenId",
          "type": "uint256"
        }
      ],
      "name": "safeTransferFrom",
      "outputs": [],
      "stateMutability": "nonpayable",
      "type": "function"
    },
    {
      "inputs": [
        {
          "internalType": "address",
          "name": "from",
          "type": "address"
        },
        {
          "internalType": "address",
          "name": "to",
          "type": "address"
        },
        {
          "internalType": "uint256",
          "name": "tokenId",
          "type": "uint256"
        },
        {
          "internalType": "bytes",
          "name": "data",
          "type": "bytes"
        }
      ],
      "name": "safeTransferFrom",
      "outputs": [],
      "stateMutability": "nonpayable",
      "type": "function"
    },
    {
      "inputs": [
        {
          "internalType": "address",
          "name": "operator",
          "type": "address"
        },
        {
          "internalType": "bool",
          "name": "approved",
          "type": "bool"
        }
      ],
      "name": "setApprovalForAll",
      "outputs": [],
      "stateMutability": "nonpayable",
      "type": "function"
    },
    {
      "inputs": [
        {
          "internalType": "bytes4",
          "name": "interfaceId",
          "type": "bytes4"
        }
      ],
      "name": "supportsInterface",
      "outputs": [
        {
          "internalType": "bool",
          "name": "",
          "type": "bool"
        }
      ],
      "stateMutability": "view",
      "type": "function",
      "constant": true
    },
    {
      "inputs": [],
      "name": "symbol",
      "outputs": [
        {
          "internalType": "string",
          "name": "",
          "type": "string"
        }
      ],
      "stateMutability": "view",
      "type": "function",
      "constant": true
    },
    {
      "inputs": [
        {
          "internalType": "uint256",
          "name": "tokenId",
          "type": "uint256"
        }
      ],
      "name": "tokenURI",
      "outputs": [
        {
          "internalType": "string",
          "name": "",
          "type": "string"
        }
      ],
      "stateMutability": "view",
      "type": "function",
      "constant": true
    },
    {
      "inputs": [
        {
          "internalType": "address",
          "name": "from",
          "type": "address"
        },
        {
          "internalType": "address",
          "name": "to",
          "type": "address"
        },
        {
          "internalType": "uint256",
          "name": "tokenId",
          "type": "uint256"
        }
      ],
      "name": "transferFrom",
      "outputs": [],
      "stateMutability": "nonpayable",
      "type": "function"
    },
    {
      "inputs": [
        {
          "internalType": "string",
          "name": "tokenURI",
          "type": "string"
        }
      ],
      "name": "mintNFT",
      "outputs": [
        {
          "internalType": "uint256",
          "name": "",
          "type": "uint256"
        }
      ],
      "stateMutability": "nonpayable",
      "type": "function"
    }
  ],
  "bytecode": "0x60806040523480156200001157600080fd5b506040518060400160405280600881526020017f496d6167654e46540000000000000000000000000000000000000000000000008152506040518060400160405280600381526020017f494d47000000000000000000000000000000000000000000000000000000000081525081600090816200008f919062000324565b508060019081620000a1919062000324565b5050506200040b565b600081519050919050565b7f4e487b7100000000000000000000000000000000000000000000000000000000600052604160045260246000fd5b7f4e487b7100000000000000000000000000000000000000000000000000000000600052602260045260246000fd5b600060028204905060018216806200012c57607f821691505b602082108103620001425762000141620000e4565b5b50919050565b60008190508160005260206000209050919050565b60006020601f8301049050919050565b600082821b905092915050565b600060088302620001ac7fffffffffffffffffffffffffffffffffffffffffffffffffffffffffffffffff826200016d565b620001b886836200016d565b95508019841693508086168417925050509392505050565b6000819050919050565b6000819050919050565b600062000205620001ff620001f984620001d0565b620001da565b620001d0565b9050919050565b6000819050919050565b6200022183620001e4565b6200023962000230826200020c565b8484546200017a565b825550505050565b600090565b6200025062000241565b6200025d81848462000216565b505050565b5b8181101562000285576200027960008262000246565b60018101905062000263565b5050565b601f821115620002d4576200029e8162000148565b620002a9846200015d565b81016020851015620002b9578190505b620002d1620002c8856200015d565b83018262000262565b50505b505050565b600082821c905092915050565b6000620002f960001984600802620002d9565b1980831691505092915050565b6000620003148383620002e6565b9150826002028217905092915050565b6200032f82620000aa565b67ffffffffffffffff8111156200034b576200034a620000b5565b5b62000357825462000113565b6200036482828562000289565b600060209050601f8311600181146200039c576000841562000387578287015190505b62000393858262000306565b86555062000403565b601f198416620003ac8662000148565b60005b82811015620003d657848901518255600182019150602085019450602081019050620003af565b86831015620003f65784890151620003f2601f891682620002e6565b8355505b6001600288020188555050505b505050505050565b6123af806200041b6000396000f3fe608060405234801561001057600080fd5b50600436106100ea5760003560e01c806370a082311161008c578063b88d4fde11610066578063b88d4fde1461025b578063c87b56dd14610277578063e985e9c5146102a7578063fb37e883146102d7576100ea565b806370a08231146101f157806395d89b4114610221578063a22cb4651461023f576100ea565b8063095ea7b3116100c8578063095ea7b31461016d57806323b872dd1461018957806342842e0e146101a55780636352211e146101c1576100ea565b806301ffc9a7146100ef57806306fdde031461011f578063081812fc1461013d575b600080fd5b6101096004803603810190610104919061181a565b610307565b6040516101169190611862565b60405180910390f35b610127610368565b604051610134919061190d565b60405180910390f35b61015760048036038101906101529190611965565b6103fa565b60405161016491906119d3565b60405180910390f35b61018760048036038101906101829190611a1a565b610416565b005b6101a3600480360381019061019e9190611a5a565b61042c565b005b6101bf60048036038101906101ba9190611a5a565b61052e565b005b6101db60048036038101906101d69190611965565b61054e565b6040516101e891906119d3565b60405180910390f35b61020b60048036038101906102069190611aad565b610560565b6040516102189190611ae9565b60405180910390f35b61022961061a565b604051610236919061190d565b60405180910390f35b61025960048036038101906102549190611b30565b6106ac565b005b61027560048036038101906102709190611ca5565b6106c2565b005b610291600480360381019061028c9190611965565b6106e7565b60405161029e919061190d565b60405180910390f35b6102c160048036038101906102bc9190611d28565b6107fa565b6040516102ce9190611862565b60405180910390f35b6102f160048036038101906102ec9190611e09565b61088e565b6040516102fe9190611ae9565b60405180910390f35b6000634906490660e01b7bffffffffffffffffffffffffffffffffffffffffffffffffffffffff1916827bffffffffffffffffffffffffffffffffffffffffffffffffffffffff191614806103615750610360826108cc565b5b9050919050565b60606000805461037790611e81565b80601f01602080910402602001604051908101604052809291908181526020018280546103a390611e81565b80156103f05780601f106103c5576101008083540402835291602001916103f0565b820191906000526020600020905b8154815290600101906020018083116103d357829003601f168201915b5050505050905090565b6000610405826109ae565b5061040f82610a36565b9050919050565b6104288282610423610a73565b610a7b565b5050565b600073ffffffffffffffffffffffffffffffffffffffff168273ffffffffffffffffffffffffffffffffffffffff160361049e5760006040517f64a0ae9200000000000000000000000000000000000000000000000000000000815260040161049591906119d3565b60405180910390fd5b60006104b283836104ad610a73565b610a8d565b90508373ffffffffffffffffffffffffffffffffffffffff168173ffffffffffffffffffffffffffffffffffffffff1614610528578382826040517f64283d7b00000000000000000000000000000000000000000000000000000000815260040161051f93929190611eb2565b60405180910390fd5b50505050565b610549838383604051806020016040528060008152506106c2565b505050565b6000610559826109ae565b9050919050565b60008073ffffffffffffffffffffffffffffffffffffffff168273ffffffffffffffffffffffffffffffffffffffff16036105d35760006040517f89c62b640000000000000000000000000000000000000000000000000000000081526004016105ca91906119d3565b60405180910390fd5b600360008373ffffffffffffffffffffffffffffffffffffffff1673ffffffffffffffffffffffffffffffffffffffff168152602001908152602001600020549050919050565b60606001805461062990611e81565b80601f016020809104026020016040519081016040528092919081815260200182805461065590611e81565b80156106a25780601f10610677576101008083540402835291602001916106a2565b820191906000526020600020905b81548152906001019060200180831161068557829003601f168201915b5050505050905090565b6106be6106b7610a73565b8383610ca7565b5050565b6106cd84848461042c565b6106e16106d8610a73565b85858585610e16565b50505050565b60606106f2826109ae565b50600060066000848152602001908152602001600020805461071390611e81565b80601f016020809104026020016040519081016040528092919081815260200182805461073f90611e81565b801561078c5780601f106107615761010080835404028352916020019161078c565b820191906000526020600020905b81548152906001019060200180831161076f57829003601f168201915b50505050509050600061079d610fc7565b905060008151036107b25781925050506107f5565b6000825111156107e75780826040516020016107cf929190611f25565b604051602081830303815290604052925050506107f5565b6107f084610fde565b925050505b919050565b6000600560008473ffffffffffffffffffffffffffffffffffffffff1673ffffffffffffffffffffffffffffffffffffffff16815260200190815260200160002060008373ffffffffffffffffffffffffffffffffffffffff1673ffffffffffffffffffffffffffffffffffffffff16815260200190815260200160002060009054906101000a900460ff16905092915050565b6000600760008154809291906108a390611f78565b9190505550600060075490506108b93382611047565b6108c38184611140565b80915050919050565b60007f80ac58cd000000000000000000000000000000000000000000000000000000007bffffffffffffffffffffffffffffffffffffffffffffffffffffffff1916827bffffffffffffffffffffffffffffffffffffffffffffffffffffffff1916148061099757507f5b5e139f000000000000000000000000000000000000000000000000000000007bffffffffffffffffffffffffffffffffffffffffffffffffffffffff1916827bffffffffffffffffffffffffffffffffffffffffffffffffffffffff1916145b806109a757506109a68261119c565b5b9050919050565b6000806109ba83611206565b9050600073ffffffffffffffffffffffffffffffffffffffff168173ffffffffffffffffffffffffffffffffffffffff1603610a2d57826040517f7e273289000000000000000000000000000000000000000000000000000000008152600401610a249190611ae9565b60405180910390fd5b80915050919050565b60006004600083815260200190815260200160002060009054906101000a900473ffffffffffffffffffffffffffffffffffffffff169050919050565b600033905090565b610a888383836001611243565b505050565b600080610a9984611206565b9050600073ffffffffffffffffffffffffffffffffffffffff168373ffffffffffffffffffffffffffffffffffffffff1614610adb57610ada818486611408565b5b600073ffffffffffffffffffffffffffffffffffffffff168173ffffffffffffffffffffffffffffffffffffffff1614610b6c57610b1d600085600080611243565b6001600360008373ffffffffffffffffffffffffffffffffffffffff1673ffffffffffffffffffffffffffffffffffffffff168152602001908152602001600020600082825403925050819055505b600073ffffffffffffffffffffffffffffffffffffffff168573ffffffffffffffffffffffffffffffffffffffff1614610bef576001600360008773ffffffffffffffffffffffffffffffffffffffff1673ffffffffffffffffffffffffffffffffffffffff168152602001908152602001600020600082825401925050819055505b846002600086815260200190815260200160002060006101000a81548173ffffffffffffffffffffffffffffffffffffffff021916908373ffffffffffffffffffffffffffffffffffffffff160217905550838573ffffffffffffffffffffffffffffffffffffffff168273ffffffffffffffffffffffffffffffffffffffff167fddf252ad1be2c89b69c2b068fc378daa952ba7f163c4a11628f55a4df523b3ef60405160405180910390a4809150509392505050565b600073ffffffffffffffffffffffffffffffffffffffff168273ffffffffffffffffffffffffffffffffffffffff1603610d1857816040517f5b08ba18000000000000000000000000000000000000000000000000000000008152600401610d0f91906119d3565b60405180910390fd5b80600560008573ffffffffffffffffffffffffffffffffffffffff1673ffffffffffffffffffffffffffffffffffffffff16815260200190815260200160002060008473ffffffffffffffffffffffffffffffffffffffff1673ffffffffffffffffffffffffffffffffffffffff16815260200190815260200160002060006101000a81548160ff0219169083151502179055508173ffffffffffffffffffffffffffffffffffffffff168373ffffffffffffffffffffffffffffffffffffffff167f17307eab39ab6107e8899845ad3d59bd9653f200f220920489ca2b5937696c3183604051610e099190611862565b60405180910390a3505050565b60008373ffffffffffffffffffffffffffffffffffffffff163b1115610fc0578273ffffffffffffffffffffffffffffffffffffffff1663150b7a02868685856040518563ffffffff1660e01b8152600401610e759493929190612015565b6020604051808303816000875af1925050508015610eb157506040513d601f19601f82011682018060405250810190610eae9190612076565b60015b610f35573d8060008114610ee1576040519150601f19603f3d011682016040523d82523d6000602084013e610ee6565b606091505b506000815103610f2d57836040517f64a0ae92000000000000000000000000000000000000000000000000000000008152600401610f2491906119d3565b60405180910390fd5b805181602001fd5b63150b7a0260e01b7bffffffffffffffffffffffffffffffffffffffffffffffffffffffff1916817bffffffffffffffffffffffffffffffffffffffffffffffffffffffff191614610fbe57836040517f64a0ae92000000000000000000000000000000000000000000000000000000008152600401610fb591906119d3565b60405180910390fd5b505b5050505050565b606060405180602001604052806000815250905090565b6060610fe9826109ae565b506000610ff4610fc7565b90506000815111611014576040518060200160405280600081525061103f565b8061101e846114cc565b60405160200161102f929190611f25565b6040516020818303038152906040525b915050919050565b600073ffffffffffffffffffffffffffffffffffffffff168273ffffffffffffffffffffffffffffffffffffffff16036110b95760006040517f64a0ae920000000000000000000000000000000000000000000000000000000081526004016110b091906119d3565b60405180910390fd5b60006110c783836000610a8d565b9050600073ffffffffffffffffffffffffffffffffffffffff168173ffffffffffffffffffffffffffffffffffffffff161461113b5760006040517f73c6ac6e00000000000000000000000000000000000000000000000000000000815260040161113291906119d3565b60405180910390fd5b505050565b80600660008481526020019081526020016000209081611160919061224f565b507ff8e1a15aba9398e019f0b49df1a4fde98ee17ae345cb5f6b5e2c27f5033e8ce7826040516111909190611ae9565b60405180910390a15050565b60007f01ffc9a7000000000000000000000000000000000000000000000000000000007bffffffffffffffffffffffffffffffffffffffffffffffffffffffff1916827bffffffffffffffffffffffffffffffffffffffffffffffffffffffff1916149050919050565b60006002600083815260200190815260200160002060009054906101000a900473ffffffffffffffffffffffffffffffffffffffff169050919050565b808061127c5750600073ffffffffffffffffffffffffffffffffffffffff168273ffffffffffffffffffffffffffffffffffffffff1614155b156113b057600061128c846109ae565b9050600073ffffffffffffffffffffffffffffffffffffffff168373ffffffffffffffffffffffffffffffffffffffff16141580156112f757508273ffffffffffffffffffffffffffffffffffffffff168173ffffffffffffffffffffffffffffffffffffffff1614155b801561130a575061130881846107fa565b155b1561134c57826040517fa9fbf51f00000000000000000000000000000000000000000000000000000000815260040161134391906119d3565b60405180910390fd5b81156113ae57838573ffffffffffffffffffffffffffffffffffffffff168273ffffffffffffffffffffffffffffffffffffffff167f8c5be1e5ebec7d5bd14f71427d1e84f3dd0314c0f7b2291e5b200ac8c7c3b92560405160405180910390a45b505b836004600085815260200190815260200160002060006101000a81548173ffffffffffffffffffffffffffffffffffffffff021916908373ffffffffffffffffffffffffffffffffffffffff16021790555050505050565b61141383838361159a565b6114c757600073ffffffffffffffffffffffffffffffffffffffff168373ffffffffffffffffffffffffffffffffffffffff160361148857806040517f7e27328900000000000000000000000000000000000000000000000000000000815260040161147f9190611ae9565b60405180910390fd5b81816040517f177e802f0000000000000000000000000000000000000000000000000000000081526004016114be929190612321565b60405180910390fd5b505050565b6060600060016114db8461165b565b01905060008167ffffffffffffffff8111156114fa576114f9611b7a565b5b6040519080825280601f01601f19166020018201604052801561152c5781602001600182028036833780820191505090505b509050600082602001820190505b60011561158f578080600190039150507f3031323334353637383961626364656600000000000000000000000000000000600a86061a8153600a85816115835761158261234a565b5b0494506000850361153a575b819350505050919050565b60008073ffffffffffffffffffffffffffffffffffffffff168373ffffffffffffffffffffffffffffffffffffffff161415801561165257508273ffffffffffffffffffffffffffffffffffffffff168473ffffffffffffffffffffffffffffffffffffffff161480611613575061161284846107fa565b5b8061165157508273ffffffffffffffffffffffffffffffffffffffff1661163983610a36565b73ffffffffffffffffffffffffffffffffffffffff16145b5b90509392505050565b600080600090507a184f03e93ff9f4daa797ed6e38ed64bf6a1f01000000000000000083106116b9577a184f03e93ff9f4daa797ed6e38ed64bf6a1f01000000000000000083816116af576116ae61234a565b5b0492506040810190505b6d04ee2d6d415b85acef810000000083106116f6576d04ee2d6d415b85acef810000000083816116ec576116eb61234a565b5b0492506020810190505b662386f26fc10000831061172557662386f26fc10000838161171b5761171a61234a565b5b0492506010810190505b6305f5e100831061174e576305f5e10083816117445761174361234a565b5b0492506008810190505b61271083106117735761271083816117695761176861234a565b5b0492506004810190505b60648310611796576064838161178c5761178b61234a565b5b0492506002810190505b600a83106117a5576001810190505b80915050919050565b6000604051905090565b600080fd5b600080fd5b60007fffffffff0000000000000000000000000000000000000000000000000000000082169050919050565b6117f7816117c2565b811461180257600080fd5b50565b600081359050611814816117ee565b92915050565b6000602082840312156118305761182f6117b8565b5b600061183e84828501611805565b91505092915050565b60008115159050919050565b61185c81611847565b82525050565b60006020820190506118776000830184611853565b92915050565b600081519050919050565b600082825260208201905092915050565b60005b838110156118b757808201518184015260208101905061189c565b60008484015250505050565b6000601f19601f8301169050919050565b60006118df8261187d565b6118e98185611888565b93506118f9818560208601611899565b611902816118c3565b840191505092915050565b6000602082019050818103600083015261192781846118d4565b905092915050565b6000819050919050565b6119428161192f565b811461194d57600080fd5b50565b60008135905061195f81611939565b92915050565b60006020828403121561197b5761197a6117b8565b5b600061198984828501611950565b91505092915050565b600073ffffffffffffffffffffffffffffffffffffffff82169050919050565b60006119bd82611992565b9050919050565b6119cd816119b2565b82525050565b60006020820190506119e860008301846119c4565b92915050565b6119f7816119b2565b8114611a0257600080fd5b50565b600081359050611a14816119ee565b92915050565b60008060408385031215611a3157611a306117b8565b5b6000611a3f85828601611a05565b9250506020611a5085828601611950565b9150509250929050565b600080600060608486031215611a7357611a726117b8565b5b6000611a8186828701611a05565b9350506020611a9286828701611a05565b9250506040611aa386828701611950565b9150509250925092565b600060208284031215611ac357611ac26117b8565b5b6000611ad184828501611a05565b91505092915050565b611ae38161192f565b82525050565b6000602082019050611afe6000830184611ada565b92915050565b611b0d81611847565b8114611b1857600080fd5b50565b600081359050611b2a81611b04565b92915050565b60008060408385031215611b4757611b466117b8565b5b6000611b5585828601611a05565b9250506020611b6685828601611b1b565b9150509250929050565b600080fd5b600080fd5b7f4e487b7100000000000000000000000000000000000000000000000000000000600052604160045260246000fd5b611bb2826118c3565b810181811067ffffffffffffffff82111715611bd157611bd0611b7a565b5b80604052505050565b6000611be46117ae565b9050611bf08282611ba9565b919050565b600067ffffffffffffffff821115611c1057611c0f611b7a565b5b611c19826118c3565b9050602081019050919050565b82818337600083830152505050565b6000611c48611c4384611bf5565b611bda565b905082815260208101848484011115611c6457611c63611b75565b5b611c6f848285611c26565b509392505050565b600082601f830112611c8c57611c8b611b70565b5b8135611c9c848260208601611c35565b91505092915050565b60008060008060808587031215611cbf57611cbe6117b8565b5b6000611ccd87828801611a05565b9450506020611cde87828801611a05565b9350506040611cef87828801611950565b925050606085013567ffffffffffffffff811115611d1057611d0f6117bd565b5b611d1c87828801611c77565b91505092959194509250565b60008060408385031215611d3f57611d3e6117b8565b5b6000611d4d85828601611a05565b9250506020611d5e85828601611a05565b9150509250929050565b600067ffffffffffffffff821115611d8357611d82611b7a565b5b611d8c826118c3565b9050602081019050919050565b6000611dac611da784611d68565b611bda565b905082815260208101848484011115611dc857611dc7611b75565b5b611dd3848285611c26565b509392505050565b600082601f830112611df057611def611b70565b5b8135611e00848260208601611d99565b91505092915050565b600060208284031215611e1f57611e1e6117b8565b5b600082013567ffffffffffffffff811115611e3d57611e3c6117bd565b5b611e4984828501611ddb565b91505092915050565b7f4e487b7100000000000000000000000000000000000000000000000000000000600052602260045260246000fd5b60006002820490506001821680611e9957607f821691505b602082108103611eac57611eab611e52565b5b50919050565b6000606082019050611ec760008301866119c4565b611ed46020830185611ada565b611ee160408301846119c4565b949350505050565b600081905092915050565b6000611eff8261187d565b611f098185611ee9565b9350611f19818560208601611899565b80840191505092915050565b6000611f318285611ef4565b9150611f3d8284611ef4565b91508190509392505050565b7f4e487b7100000000000000000000000000000000000000000000000000000000600052601160045260246000fd5b6000611f838261192f565b91507fffffffffffffffffffffffffffffffffffffffffffffffffffffffffffffffff8203611fb557611fb4611f49565b5b600182019050919050565b600081519050919050565b600082825260208201905092915050565b6000611fe782611fc0565b611ff18185611fcb565b9350612001818560208601611899565b61200a816118c3565b840191505092915050565b600060808201905061202a60008301876119c4565b61203760208301866119c4565b6120446040830185611ada565b81810360608301526120568184611fdc565b905095945050505050565b600081519050612070816117ee565b92915050565b60006020828403121561208c5761208b6117b8565b5b600061209a84828501612061565b91505092915050565b60008190508160005260206000209050919050565b60006020601f8301049050919050565b600082821b905092915050565b6000600883026121057fffffffffffffffffffffffffffffffffffffffffffffffffffffffffffffffff826120c8565b61210f86836120c8565b95508019841693508086168417925050509392505050565b6000819050919050565b600061214c6121476121428461192f565b612127565b61192f565b9050919050565b6000819050919050565b61216683612131565b61217a61217282612153565b8484546120d5565b825550505050565b600090565b61218f612182565b61219a81848461215d565b505050565b5b818110156121be576121b3600082612187565b6001810190506121a0565b5050565b601f821115612203576121d4816120a3565b6121dd846120b8565b810160208510156121ec578190505b6122006121f8856120b8565b83018261219f565b50505b505050565b600082821c905092915050565b600061222660001984600802612208565b1980831691505092915050565b600061223f8383612215565b9150826002028217905092915050565b6122588261187d565b67ffffffffffffffff81111561227157612270611b7a565b5b61227b8254611e81565b6122868282856121c2565b600060209050601f8311600181146122b957600084156122a7578287015190505b6122b18582612233565b865550612319565b601f1984166122c7866120a3565b60005b828110156122ef578489015182556001820191506020850194506020810190506122ca565b8683101561230c5784890151612308601f891682612215565b8355505b6001600288020188555050505b505050505050565b600060408201905061233660008301856119c4565b6123436020830184611ada565b9392505050565b7f4e487b7100000000000000000000000000000000000000000000000000000000600052601260045260246000fdfea2646970667358221220c134446280ea4dfddfdd1ed51c31799c92c2a1ac806f8a0cf0d0ef71b4af6fb664736f6c63430008150033",
  "immutableReferences": {},
  "source": "// SPDX-License-Identifier: GPL-3.0\r\npragma solidity ^0.8.20;\r\n\r\nimport \"@openzeppelin/contracts/token/ERC721/extensions/ERC721URIStorage.sol\";\r\n\r\ncontract ImageNFT is ERC721URIStorage {\r\n    uint256 private _tokenIdCounter;\r\n\r\n    constructor() ERC721(\"ImageNFT\", \"IMG\") {}\r\n\r\n    function mintNFT(string memory tokenURI) public returns (uint256) {\r\n        _tokenIdCounter++;\r\n        uint256 newItemId = _tokenIdCounter;\r\n        _mint(msg.sender, newItemId);\r\n        _setTokenURI(newItemId, tokenURI);\r\n        return newItemId;\r\n    }\r\n}\r\n",
  "sourcePath": "D:\\blockchain_Tempaltes\\contracts\\myNFT.sol",
  "compiler": {
    "name": "solc",
    "version": "0.8.21+commit.d9974bed.Emscripten.clang"
  },
  "schemaVersion": "3.4.16",
  "updatedAt": "2024-12-03T03:21:01.051Z",
  "networkType": "ethereum",
  "devdoc": {
    "errors": {
      "ERC721IncorrectOwner(address,uint256,address)": [
        {
          "details": "Indicates an error related to the ownership over a particular token. Used in transfers.",
          "params": {
            "owner": "Address of the current owner of a token.",
            "sender": "Address whose tokens are being transferred.",
            "tokenId": "Identifier number of a token."
          }
        }
      ],
      "ERC721InsufficientApproval(address,uint256)": [
        {
          "details": "Indicates a failure with the `operator`s approval. Used in transfers.",
          "params": {
            "operator": "Address that may be allowed to operate on tokens without being their owner.",
            "tokenId": "Identifier number of a token."
          }
        }
      ],
      "ERC721InvalidApprover(address)": [
        {
          "details": "Indicates a failure with the `approver` of a token to be approved. Used in approvals.",
          "params": {
            "approver": "Address initiating an approval operation."
          }
        }
      ],
      "ERC721InvalidOperator(address)": [
        {
          "details": "Indicates a failure with the `operator` to be approved. Used in approvals.",
          "params": {
            "operator": "Address that may be allowed to operate on tokens without being their owner."
          }
        }
      ],
      "ERC721InvalidOwner(address)": [
        {
          "details": "Indicates that an address can't be an owner. For example, `address(0)` is a forbidden owner in ERC-20. Used in balance queries.",
          "params": {
            "owner": "Address of the current owner of a token."
          }
        }
      ],
      "ERC721InvalidReceiver(address)": [
        {
          "details": "Indicates a failure with the token `receiver`. Used in transfers.",
          "params": {
            "receiver": "Address to which tokens are being transferred."
          }
        }
      ],
      "ERC721InvalidSender(address)": [
        {
          "details": "Indicates a failure with the token `sender`. Used in transfers.",
          "params": {
            "sender": "Address whose tokens are being transferred."
          }
        }
      ],
      "ERC721NonexistentToken(uint256)": [
        {
          "details": "Indicates a `tokenId` whose `owner` is the zero address.",
          "params": {
            "tokenId": "Identifier number of a token."
          }
        }
      ]
    },
    "events": {
      "Approval(address,address,uint256)": {
        "details": "Emitted when `owner` enables `approved` to manage the `tokenId` token."
      },
      "ApprovalForAll(address,address,bool)": {
        "details": "Emitted when `owner` enables or disables (`approved`) `operator` to manage all of its assets."
      },
      "BatchMetadataUpdate(uint256,uint256)": {
        "details": "This event emits when the metadata of a range of tokens is changed. So that the third-party platforms such as NFT market could timely update the images and related attributes of the NFTs."
      },
      "MetadataUpdate(uint256)": {
        "details": "This event emits when the metadata of a token is changed. So that the third-party platforms such as NFT market could timely update the images and related attributes of the NFT."
      },
      "Transfer(address,address,uint256)": {
        "details": "Emitted when `tokenId` token is transferred from `from` to `to`."
      }
    },
    "kind": "dev",
    "methods": {
      "approve(address,uint256)": {
        "details": "See {IERC721-approve}."
      },
      "balanceOf(address)": {
        "details": "See {IERC721-balanceOf}."
      },
      "getApproved(uint256)": {
        "details": "See {IERC721-getApproved}."
      },
      "isApprovedForAll(address,address)": {
        "details": "See {IERC721-isApprovedForAll}."
      },
      "name()": {
        "details": "See {IERC721Metadata-name}."
      },
      "ownerOf(uint256)": {
        "details": "See {IERC721-ownerOf}."
      },
      "safeTransferFrom(address,address,uint256)": {
        "details": "See {IERC721-safeTransferFrom}."
      },
      "safeTransferFrom(address,address,uint256,bytes)": {
        "details": "See {IERC721-safeTransferFrom}."
      },
      "setApprovalForAll(address,bool)": {
        "details": "See {IERC721-setApprovalForAll}."
      },
      "supportsInterface(bytes4)": {
        "details": "See {IERC165-supportsInterface}"
      },
      "symbol()": {
        "details": "See {IERC721Metadata-symbol}."
      },
      "tokenURI(uint256)": {
        "details": "See {IERC721Metadata-tokenURI}."
      },
      "transferFrom(address,address,uint256)": {
        "details": "See {IERC721-transferFrom}."
      }
    },
    "version": 1
  },
  "userdoc": {
    "kind": "user",
    "methods": {},
    "version": 1
  }
}